:100000000C9462000C948A000C948A000C948A0070
:100010000C948A000C948A000C948A000C948A0038
:100020000C948A000C948A000C948A000C948A0028
:100030000C948A000C948A000C948A000C948A0018
:100040000C947A020C948A000C94EA020C94C40278
:100050000C948A000C948A000C948A000C948A00F8
:100060000C948A000C948A000000000024002700F1
:100070002A0000000000250028002B0000000000DE
:1000800023002600290004040404040404040202DA
:100090000202020203030303030301020408102007
:1000A0004080010204081020010204081020000012
:1000B0000008000201000003040700000000000027
:1000C00000001C0311241FBECFEFD8E0DEBFCDBF60
:1000D00011E0A0E0B1E0E8EFF0E102C005900D9280
:1000E000A032B107D9F721E0A0E2B1E001C01D9232
:1000F000A03EB207E1F710E0C2E6D0E004C02197CD
:10010000FE010E946F08C136D107C9F70E945E0345
:100110000C947A080C940000833081F028F481302C
:1001200099F08230A1F008958730A9F08830B9F0B5
:100130008430D1F4809180008F7D03C08091800055
:100140008F7780938000089584B58F7702C084B53F
:100150008F7D84BD08958091B0008F7703C080911A
:10016000B0008F7D8093B0000895CF93DF93282F48
:1001700030E0F901E255FF4F8491F901E656FF4F57
:10018000D491F901EA57FF4FC491CC2391F081112A
:100190000E948C00EC2FF0E0EE0FFF1FE458FF4FA1
:1001A000A591B491EC91ED2381E090E021F480E001
:1001B00002C080E090E0DF91CF9108951F93CF932C
:1001C000DF93282F30E0F901E255FF4F8491F901C8
:1001D000E656FF4FD491F901EA57FF4FC491CC2363
:1001E000C9F0162F81110E948C00EC2FF0E0EE0F69
:1001F000FF1FEE58FF4FA591B4918FB7F8941111DE
:1002000005C09C91ED2FE095E92302C0EC91ED2B08
:10021000EC938FBFDF91CF911F910895CF93DF9320
:1002200090E0FC01E656FF4F2491FC01EA57FF4F96
:100230008491882361F190E0880F991FFC01E859AF
:10024000FF4FC591D491FC01EE58FF4FA591B49199
:10025000611109C09FB7F894888120958223888313
:10026000EC912E230BC0623061F49FB7F894388173
:10027000822F809583238883EC912E2B2C939FBF14
:1002800006C08FB7F894E8812E2B28838FBFDF91AB
:10029000CF9108953FB7F894809131019091320148
:1002A000A0913301B091340126B5A89B05C02F3F22
:1002B00019F00196A11DB11D3FBFBA2FA92F982F8C
:1002C0008827820F911DA11DB11DBC01CD0142E007
:1002D000660F771F881F991F4A95D1F70895CF920F
:1002E000DF92EF92FF920F931F93CF93DF936C01F6
:1002F0007A018B01C0E0D0E0CE15DF0589F0D8018E
:100300006D918D01D601ED91FC910190F081E02D70
:10031000C6010995892B11F47E0102C02196ECCF0C
:10032000C701DF91CF911F910F91FF90EF90DF9068
:10033000CF900895FC01918D828D981761F0828D88
:10034000DF01A80FB11D5D968C91928D9F5F9F7309
:10035000928F90E008958FEF9FEF0895FC01918DAB
:10036000828D981731F0828DE80FF11D858D90E018
:1003700008958FEF9FEF0895FC01918D228D892FB5
:1003800090E0805C9F4F821B91098F73992708959D
:1003900085E391E00E94BC0121E0892B09F420E073
:1003A000822F0895FC01848DDF01A80FB11DA35A8F
:1003B000BF4F2C91848D90E001968F739927848F85
:1003C000A689B7892C93A089B1898C9180648C937C
:1003D000938D848D981306C00288F389E02D808167
:1003E0008F7D80830895EF92FF920F931F93CF9399
:1003F000DF93EC0181E0888F9B8D8C8D981305C075
:10040000E889F989808185FD24C0F62E0B8D10E0E6
:100410000F5F1F4F0F731127E02E8C8DE8120CC059
:100420000FB607FCFACFE889F989808185FFF5CFFF
:10043000CE010E94D201F1CF8B8DFE01E80FF11D9C
:10044000E35AFF4FF0820B8FEA89FB89808180623B
:1004500007C0EE89FF896083E889F989808180641B
:10046000808381E090E0DF91CF911F910F91FF9009
:10047000EF900895CF93DF93EC01888D8823C9F026
:10048000EA89FB89808185FD05C0A889B9898C919D
:1004900086FD0FC00FB607FCF5CF808185FFF2CF38
:1004A000A889B9898C9185FFEDCFCE010E94D20138
:1004B000E7CFDF91CF91089580E090E0892B29F07C
:1004C0000E94C80181110C9400000895009769F002
:1004D000FC0101900020E9F73197AF01481B590B4F
:1004E000BC0185E391E00C946F0180E090E00895F9
:1004F0000E9475081F920F920FB60F9211242F932E
:100500003F938F939F93AF93BF9380912D019091D1
:100510002E01A0912F01B091300130912C0123E0E8
:10052000230F2D3720F40196A11DB11D05C026E82B
:10053000230F0296A11DB11D20932C0180932D0144
:1005400090932E01A0932F01B0933001809131013F
:1005500090913201A0913301B09134010196A11D17
:10056000B11D8093310190933201A0933301B09378
:100570003401BF91AF919F918F913F912F910F9037
:100580000FBE0F901F9018951F920F920FB60F92EB
:1005900011242F933F934F935F936F937F938F9388
:1005A0009F93AF93BF93EF93FF9385E391E00E94F6
:1005B000D201FF91EF91BF91AF919F918F917F9168
:1005C0006F915F914F913F912F910F900FBE0F90C0
:1005D0001F9018951F920F920FB60F9211242F9310
:1005E0008F939F93EF93FF93E0914501F091460124
:1005F0008081E0914B01F0914C0182FD12C090810D
:1006000080914E018F5F8F7320914F01821751F0BF
:10061000E0914E01F0E0EB5CFE4F958F80934E0130
:1006200001C08081FF91EF919F918F912F910F9049
:100630000FBE0F901F901895CF93DF93E5E3F1E085
:100640001382128288EE93E0A0E0B0E08483958369
:10065000A683B78384E091E09183808385EC90E06A
:100660009587848784EC90E09787868780EC90E07C
:10067000918B808B81EC90E0938B828B82EC90E06D
:10068000958B848B86EC90E0978B868B118E128EE7
:10069000138E148EC2EDD1E085E090E099838883BB
:1006A00084E090E09B838A8361E085E00E940E01F4
:1006B00060E08A81DF91CF910C940E01CF93DF939C
:1006C000CDB7DEB7A1970FB6F894DEBF0FBECDBF92
:1006D000789484B5826084BD84B5816084BD85B51D
:1006E000826085BD85B5816085BD80916E00816029
:1006F00080936E00109281008091810082608093CF
:1007000081008091810081608093810080918000D0
:100710008160809380008091B10084608093B100FB
:100720008091B00081608093B00080917A008460F5
:1007300080937A0080917A00826080937A00809121
:100740007A00816080937A0080917A00806880933B
:100750007A001092C10061E088E00E940E0161E021
:1007600089E00E940E0161E08AE00E940E0161E0D2
:100770008BE00E940E01E0914501F091460182E07C
:100780008083E0914101F09142011082E0914301A8
:10079000F09144018FEC808310924D01E09149016A
:1007A000F0914A0186E08083E0914701F091480191
:1007B000808180618083E0914701F09148018081D0
:1007C00088608083E0914701F091480180818068D2
:1007D0008083E0914701F091480180818F7D808383
:1007E00080E191E00E9466028CE191E00E94660245
:1007F00058E0252E312C01E010E06AE0462E512C05
:10080000612C712C1092DB011092DA011092DD0143
:100810001092DC011092DF011092DE0161E0809104
:10082000D2010E94DE008BEE90E00197F1F78091FB
:10083000D4010E94B500892BD1F78091D4010E9488
:10084000B500892BD1F31092D9018091D90189305B
:1008500098F58091D4010E94B500892BD1F78BEED9
:1008600090E00197F1F78091D4010E94B500892BA7
:10087000B9F08091D9019101281B3109C901980172
:1008800002C0220F331F8A95E2F78091DA0190911E
:10089000DB01822B932B9093DB018093DA0106C05E
:1008A0008091D4010E94B500892BD1F38091D901A8
:1008B0008F5F8093D901C9CF8091D4010E94B50088
:1008C000892BD1F78091D4010E94B500892BD1F3F7
:1008D0001092D9018091D901893090F58091D4018D
:1008E0000E94B500892BD1F78BEE90E00197F1F7CC
:1008F0008091D4010E94B500892BB1F08091D9017B
:10090000F101E81BF109980102C0220F331FEA959B
:10091000E2F78091DC019091DD01822B932B909383
:10092000DD018093DC0106C08091D4010E94B500F6
:10093000892BD1F38091D9018F5F8093D901CACFE0
:1009400060E08091D2010E94DE006091DA01709136
:10095000DB0180E090E0993071F09801092E02C02F
:10096000220F331F0A94E2F726233723232B09F0A3
:100970008F5F9F5FF0CF9093D9018093D801282F8C
:10098000217080FF02C080E050C08091DC01909116
:10099000DD0130E0293071F0A801022E02C0440FC1
:1009A000551F0A94E2F748235923452B09F03F5F6E
:1009B0002F5FF0CF2093D9013093D80130FDE3CFE2
:1009C000769567957093DB016093DA01969587952C
:1009D0009093DD018093DC01762F6627682B792BBD
:1009E0007093D7016093D60180E090E00E942907C0
:1009F00020E030EE4FEF54E40E94810620E030EC1E
:100A00004AED55E40E94BC0720E030E04AE754E498
:100A10000E9414060E94F3067093DF016093DE01CA
:100A200070932B0160932A0181E090E0909329015B
:100A30008093280160912A0170912B01072E000CF0
:100A4000880B990B0E942B0720E030E048EC52E421
:100A50000E948106609324017093250180932601F2
:100A60009093270126E636E646EE5FE30E94BC0738
:100A700020E030E040E052E40E9415066B017C016A
:100A800020E030E0A9010E94B70720E030E040E01C
:100A90005FE387FD05C0C701B6010E94150604C0CB
:100AA000C701B6010E9414060E94F3066B01709301
:100AB0002301609322016C3471054CF460E088E0FE
:100AC0000E94DE0026E4C216D1043CF004C061E0BE
:100AD00088E00E94DE0060E001C061E08BE00E94DF
:100AE000DE0080912001909121018C159D059CF4E0
:100AF0003AE4C316D1042CF060E08AE00E94DE00E4
:100B000019C061E08AE00E94DE0089E4C816D104C1
:100B100089F060E010C0C816D90684F49AE4C916BA
:100B2000D10454F761E08AE00E94DE00E8E4CE16CA
:100B3000D1047CF361E089E00E94DE00D0922101C3
:100B4000C09220010D2C000CEE08FF08F7FE26C015
:100B5000E0913501F09136010190F081E02D6DE2D8
:100B600085E391E0099522273327A9012C193D0936
:100B70004E095F0919A2CE0181966C01CA01B90123
:100B8000A30192010E944D08605DF60162936F011E
:100B9000211531054105510589F715C0A7019601B9
:100BA00019A2CE0181966C01CA01B901A30192017B
:100BB0000E944D08605DF60162936F0121153105B9
:100BC0004105510589F7C6010E9466028CE191E05A
:100BD0000E9466020E944A016B017C0188EE882E09
:100BE00083E0982EA12CB12C0E944A01DC01CB019C
:100BF0008C199D09AE09BF09883E9340A105B10536
:100C000058F0F1E08F1A9108A108B10828EEC20E41
:100C100023E0D21EE11CF11C81149104A104B10453
:100C200019F70E945C02EECD5058BB27AA270E94FC
:100C30002C060C947D070E946F0738F00E947607FF
:100C400020F039F49F3F19F426F40C946C070EF44D
:100C5000E095E7FB0C946607E92F0E948E0758F396
:100C6000BA17620773078407950720F079F4A6F591
:100C70000C94B0070EF4E0950B2EBA2FA02D0B01AB
:100C8000B90190010C01CA01A0011124FF27591BD1
:100C900099F0593F50F4503E68F11A16F040A22FD7
:100CA000232F342F4427585FF3CF46953795279548
:100CB000A795F0405395C9F77EF41F16BA0B620B47
:100CC000730B840BBAF09150A1F0FF0FBB1F661F8E
:100CD000771F881FC2F70EC0BA0F621F731F841FD1
:100CE00048F4879577956795B795F7959E3F08F0F7
:100CF000B0CF9395880F08F09927EE0F97958795B9
:100D000008950E9495060C947D070E94760758F07E
:100D10000E946F0740F029F45F3F29F00C946607AA
:100D200051110C94B1070C946C070E948E0768F364
:100D30009923B1F3552391F3951B550BBB27AA2794
:100D400062177307840738F09F5F5F4F220F331FCE
:100D5000441FAA1FA9F335D00E2E3AF0E0E832D096
:100D600091505040E695001CCAF72BD0FE2F29D099
:100D7000660F771F881FBB1F261737074807AB076B
:100D8000B0E809F0BB0B802DBF01FF2793585F4FE0
:100D90003AF09E3F510578F00C9466070C94B10729
:100DA0005F3FE4F3983ED4F3869577956795B795C2
:100DB000F7959F5FC9F7880F911D9695879597F9CD
:100DC0000895E1E0660F771F881FBB1F6217730746
:100DD0008407BA0720F0621B730B840BBA0BEE1F5B
:100DE00088F7E09508950E94FA066894B1110C9472
:100DF000B10708950E94960788F09F5798F0B92F81
:100E00009927B751B0F0E1F0660F771F881F991F3F
:100E10001AF0BA95C9F714C0B13091F00E94B0072A
:100E2000B1E008950C94B007672F782F8827B85F3A
:100E300039F0B93FCCF3869577956795B395D9F797
:100E40003EF490958095709561957F4F8F4F9F4FA1
:100E50000895E89409C097FB3EF4909580957095AD
:100E600061957F4F8F4F9F4F9923A9F0F92F96E9F6
:100E7000BB279395F695879577956795B795F1116B
:100E8000F8CFFAF4BB0F11F460FF1BC06F5F7F4F08
:100E90008F4F9F4F16C0882311F096E911C077231A
:100EA00021F09EE8872F762F05C0662371F096E823
:100EB000862F70E060E02AF09A95660F771F881FF2
:100EC000DAF7880F9695879597F9089597F99F67B0
:100ED00080E870E060E008959FEF80EC08950024C2
:100EE0000A941616170618060906089500240A948F
:100EF00012161306140605060895092E0394000C15
:100F000011F4882352F0BB0F40F4BF2B11F460FFA3
:100F100004C06F5F7F4F8F4F9F4F089557FD9058CC
:100F2000440F551F59F05F3F71F04795880F97FBAD
:100F3000991F61F09F3F79F0879508951216130667
:100F40001406551FF2CF4695F1DF08C01616170696
:100F50001806991FF1CF86957105610508940895CB
:100F6000E894BB2766277727CB0197F908950E945D
:100F7000290808F48FEF08950E94CF070C947D078D
:100F80000E946F0738F00E94760720F0952311F039
:100F90000C9466070C946C0711240C94B1070E9402
:100FA0008E0770F3959FC1F3950F50E0551F629F18
:100FB000F001729FBB27F00DB11D639FAA27F00DB2
:100FC000B11DAA1F649F6627B00DA11D661F829FD9
:100FD0002227B00DA11D621F739FB00DA11D621FBE
:100FE000839FA00D611D221F749F3327A00D611DDB
:100FF000231F849F600D211D822F762F6A2F1124BD
:101000009F5750409AF0F1F088234AF0EE0FFF1FEF
:10101000BB1F661F771F881F91505040A9F79E3F46
:10102000510580F00C9466070C94B1075F3FE4F320
:10103000983ED4F3869577956795B795F795E7959C
:101040009F5FC1F7FE2B880F911D9695879597F9A5
:101050000895990F0008550FAA0BE0E8FEEF161649
:101060001706E807F907C0F012161306E407F5079C
:1010700098F0621B730B840B950B39F40A2661F010
:10108000232B242B252B21F408950A2609F4A140B3
:10109000A6958FEF811D811D0895A1E21A2EAA1B2E
:1010A000BB1BFD010DC0AA1FBB1FEE1FFF1FA21718
:1010B000B307E407F50720F0A21BB30BE40BF50B15
:1010C000661F771F881F991F1A9469F7609570959E
:1010D000809590959B01AC01BD01CF010895EE0F65
:1010E000FF1F0590F491E02D099481E090E0F894C1
:0810F0000C947A08F894FFCF7C
:1010F80000000000F3016F01BC019A01AE013A0241
:101108005374617274696E672E2E2E000D0A0000EA
:00000001FF
